{
  "contractName": "DistributorC",
  "abi": [
    {
      "constant": false,
      "inputs": [
        {
          "name": "_tempPaymentID",
          "type": "uint256"
        }
      ],
      "name": "getUserPayment",
      "outputs": [
        {
          "name": "",
          "type": "uint256"
        },
        {
          "name": "",
          "type": "uint256"
        },
        {
          "name": "",
          "type": "address"
        },
        {
          "name": "",
          "type": "bool"
        }
      ],
      "payable": false,
      "stateMutability": "nonpayable",
      "type": "function"
    },
    {
      "constant": false,
      "inputs": [
        {
          "name": "_taskID",
          "type": "uint256"
        },
        {
          "name": "_tempPaymentID",
          "type": "uint256"
        }
      ],
      "name": "addPayment",
      "outputs": [],
      "payable": false,
      "stateMutability": "nonpayable",
      "type": "function"
    },
    {
      "constant": true,
      "inputs": [],
      "name": "dopplerFoundation",
      "outputs": [
        {
          "name": "",
          "type": "address"
        }
      ],
      "payable": false,
      "stateMutability": "view",
      "type": "function"
    },
    {
      "inputs": [],
      "payable": false,
      "stateMutability": "nonpayable",
      "type": "constructor"
    }
  ],
  "bytecode": "0x6060604052341561000f57600080fd5b336000806101000a81548173ffffffffffffffffffffffffffffffffffffffff021916908373ffffffffffffffffffffffffffffffffffffffff1602179055506103008061005e6000396000f300606060405260043610610057576000357c0100000000000000000000000000000000000000000000000000000000900463ffffffff1680632028d5bd1461005c5780634d0a391c146100d85780636cc2886114610104575b600080fd5b341561006757600080fd5b61007d6004808035906020019091905050610159565b604051808581526020018481526020018373ffffffffffffffffffffffffffffffffffffffff1673ffffffffffffffffffffffffffffffffffffffff1681526020018215151515815260200194505050505060405180910390f35b34156100e357600080fd5b61010260048080359060200190919080359060200190919050506101c8565b005b341561010f57600080fd5b6101176102af565b604051808273ffffffffffffffffffffffffffffffffffffffff1673ffffffffffffffffffffffffffffffffffffffff16815260200191505060405180910390f35b600080600080600060026000600181526020019081526020016000209050806000015481600101548260020160009054906101000a900473ffffffffffffffffffffffffffffffffffffffff168360020160149054906101000a900460ff169450945094509450509193509193565b6000806000803493503392508591508490506080604051908101604052808581526020018781526020018473ffffffffffffffffffffffffffffffffffffffff168152602001600115158152506002600060018152602001908152602001600020600082015181600001556020820151816001015560408201518160020160006101000a81548173ffffffffffffffffffffffffffffffffffffffff021916908373ffffffffffffffffffffffffffffffffffffffff16021790555060608201518160020160146101000a81548160ff021916908315150217905550905050505050505050565b6000809054906101000a900473ffffffffffffffffffffffffffffffffffffffff16815600a165627a7a7230582047757c55ab171c248e8600ad21615a55d1b90cdace5ee502381f0273b03a9c640029",
  "source": "/// @title SubLevelC\npragma solidity ^0.4.17;\n\nimport './SubLevelC.sol';\n\ncontract DistributorC {\n  address public dopplerFoundation;\n  mapping (uint => Task) taskMapping;\n  mapping (uint => Payment) escrowMapping;\n\n  struct Task {\n    SubLevelC provider;\n    SubLevelC contributor;\n    SubLevelC appOwner;\n\n    uint providerPercent;\n    uint contributorPercent;\n    uint appOwnerPercent;\n\n    bool isValue;\n  }\n\n  struct Payment {\n    uint amount;\n    uint taskID;\n    address userAddress;\n\n    bool isValue;\n  }\n\n  function DistributorC() {\n    dopplerFoundation = msg.sender;\n  }\n\n  // Creates a payment object and holds it in escrow while waiting for the result.\n  function addPayment(uint _taskID, uint _tempPaymentID) {\n\n    uint amountSent = msg.value;\n    address userAddr = msg.sender;\n    uint taskID = _taskID;\n    uint tempPaymentID = _tempPaymentID;\n\n    escrowMapping[1] = Payment(\n      {\n        amount: amountSent,\n        taskID: _taskID,\n        userAddress: userAddr,\n        isValue: true\n      });\n  }\n\n  // Returns payment info for a given user.\n  function getUserPayment(uint _tempPaymentID) public returns(uint, uint, address, bool) {\n    Payment userPayment = escrowMapping[1];\n    return (userPayment.amount, userPayment.taskID, userPayment.userAddress, userPayment.isValue);\n  }\n}\n",
  "sourcePath": "/Users/rob/Desktop/crypto-research/ethereum/pocs/poc1/contracts/DistributorC.sol",
  "compiler": {
    "name": "solc",
    "version": "0.4.18+commit.9cf6e910.Emscripten.clang"
  },
  "schemaVersion": "1.0.1",
  "updatedAt": "2018-01-04T22:19:01.274Z"
}