{
  "contractName": "DistributorC",
  "abi": [
    {
      "constant": false,
      "inputs": [
        {
          "name": "_taskID",
          "type": "uint256"
        }
      ],
      "name": "getTask",
      "outputs": [
        {
          "name": "",
          "type": "address"
        },
        {
          "name": "",
          "type": "address"
        },
        {
          "name": "",
          "type": "address"
        },
        {
          "name": "",
          "type": "uint256"
        },
        {
          "name": "",
          "type": "uint256"
        },
        {
          "name": "",
          "type": "uint256"
        },
        {
          "name": "",
          "type": "bool"
        }
      ],
      "payable": false,
      "stateMutability": "nonpayable",
      "type": "function"
    },
    {
      "constant": false,
      "inputs": [
        {
          "name": "_tempPaymentID",
          "type": "uint256"
        }
      ],
      "name": "getUserPayment",
      "outputs": [
        {
          "name": "",
          "type": "uint256"
        },
        {
          "name": "",
          "type": "uint256"
        },
        {
          "name": "",
          "type": "address"
        },
        {
          "name": "",
          "type": "bool"
        }
      ],
      "payable": false,
      "stateMutability": "nonpayable",
      "type": "function"
    },
    {
      "constant": false,
      "inputs": [
        {
          "name": "_taskID",
          "type": "uint256"
        },
        {
          "name": "_tempPaymentID",
          "type": "uint256"
        }
      ],
      "name": "addPayment",
      "outputs": [],
      "payable": true,
      "stateMutability": "payable",
      "type": "function"
    },
    {
      "constant": false,
      "inputs": [
        {
          "name": "outcome",
          "type": "uint256"
        },
        {
          "name": "paymentID",
          "type": "uint256"
        }
      ],
      "name": "distributePayment",
      "outputs": [],
      "payable": false,
      "stateMutability": "nonpayable",
      "type": "function"
    },
    {
      "constant": true,
      "inputs": [],
      "name": "dopplerFoundation",
      "outputs": [
        {
          "name": "",
          "type": "address"
        }
      ],
      "payable": false,
      "stateMutability": "view",
      "type": "function"
    },
    {
      "constant": false,
      "inputs": [
        {
          "name": "_taskID",
          "type": "uint256"
        },
        {
          "name": "_providerAddress",
          "type": "address"
        },
        {
          "name": "_contributorAddress",
          "type": "address"
        },
        {
          "name": "_appOwnerAddress",
          "type": "address"
        },
        {
          "name": "_providerPercent",
          "type": "uint256"
        },
        {
          "name": "_contributorPercent",
          "type": "uint256"
        },
        {
          "name": "_appOwnerPercent",
          "type": "uint256"
        }
      ],
      "name": "addTask",
      "outputs": [],
      "payable": false,
      "stateMutability": "nonpayable",
      "type": "function"
    },
    {
      "inputs": [],
      "payable": false,
      "stateMutability": "nonpayable",
      "type": "constructor"
    }
  ],
  "bytecode": "0x6060604052341561000f57600080fd5b336000806101000a81548173ffffffffffffffffffffffffffffffffffffffff021916908373ffffffffffffffffffffffffffffffffffffffff160217905550610aa08061005e6000396000f300606060405260043610610078576000357c0100000000000000000000000000000000000000000000000000000000900463ffffffff1680631d65e77e1461007d5780632028d5bd146101665780634d0a391c146101e25780635793e02f146102035780636cc288611461022f5780639a712f5914610284575b600080fd5b341561008857600080fd5b61009e600480803590602001909190505061031f565b604051808873ffffffffffffffffffffffffffffffffffffffff1673ffffffffffffffffffffffffffffffffffffffff1681526020018773ffffffffffffffffffffffffffffffffffffffff1673ffffffffffffffffffffffffffffffffffffffff1681526020018673ffffffffffffffffffffffffffffffffffffffff1673ffffffffffffffffffffffffffffffffffffffff1681526020018581526020018481526020018381526020018215151515815260200197505050505050505060405180910390f35b341561017157600080fd5b61018760048080359060200190919050506103ea565b604051808581526020018481526020018373ffffffffffffffffffffffffffffffffffffffff1673ffffffffffffffffffffffffffffffffffffffff1681526020018215151515815260200194505050505060405180910390f35b6102016004808035906020019091908035906020019091905050610458565b005b341561020e57600080fd5b61022d600480803590602001909190803590602001909190505061053e565b005b341561023a57600080fd5b61024261084e565b604051808273ffffffffffffffffffffffffffffffffffffffff1673ffffffffffffffffffffffffffffffffffffffff16815260200191505060405180910390f35b341561028f57600080fd5b61031d600480803590602001909190803573ffffffffffffffffffffffffffffffffffffffff1690602001909190803573ffffffffffffffffffffffffffffffffffffffff1690602001909190803573ffffffffffffffffffffffffffffffffffffffff16906020019091908035906020019091908035906020019091908035906020019091905050610873565b005b600080600080600080600080600160008a815260200190815260200160002090508060000160009054906101000a900473ffffffffffffffffffffffffffffffffffffffff168160010160009054906101000a900473ffffffffffffffffffffffffffffffffffffffff168260020160009054906101000a900473ffffffffffffffffffffffffffffffffffffffff168360030154846004015485600501548660060160009054906101000a900460ff16975097509750975097509750975050919395979092949650565b6000806000806000600260008781526020019081526020016000209050806000015481600101548260020160009054906101000a900473ffffffffffffffffffffffffffffffffffffffff168360020160149054906101000a900460ff169450945094509450509193509193565b6000806000803493503392508591508490506080604051908101604052808581526020018781526020018473ffffffffffffffffffffffffffffffffffffffff1681526020016001151581525060026000878152602001908152602001600020600082015181600001556020820151816001015560408201518160020160006101000a81548173ffffffffffffffffffffffffffffffffffffffff021916908373ffffffffffffffffffffffffffffffffffffffff16021790555060608201518160020160146101000a81548160ff021916908315150217905550905050505050505050565b600080600080600080600080600080339950600260008c81526020019081526020016000209850886000015497508860010154965060016000888152602001908152602001600020955060018c14156105c15785600301549450848803975085600401549350838803975085600501549250828803975087915060009050610651565b60028c14156105fa5785600301549450848803975085600401549350838803975085600501549250828803975087915060009050610650565b60038c141561063157856003015494508488039750600093506000925085600401548660050154019050808803975087915061064f565b60048c141561064e57600094506000935060009250600091508790505b5b5b5b6000851415156106c0578560000160009054906101000a900473ffffffffffffffffffffffffffffffffffffffff1673ffffffffffffffffffffffffffffffffffffffff166108fc869081150290604051600060405180830381858888f1935050505015156106bf57600080fd5b5b60008414151561072f578560010160009054906101000a900473ffffffffffffffffffffffffffffffffffffffff1673ffffffffffffffffffffffffffffffffffffffff166108fc859081150290604051600060405180830381858888f19350505050151561072e57600080fd5b5b60008314151561079e578560020160009054906101000a900473ffffffffffffffffffffffffffffffffffffffff1673ffffffffffffffffffffffffffffffffffffffff166108fc849081150290604051600060405180830381858888f19350505050151561079d57600080fd5b5b6000811415156107df578973ffffffffffffffffffffffffffffffffffffffff166108fc829081150290604051600060405180830381858888f19350505050505b600260008c815260200190815260200160002060008082016000905560018201600090556002820160006101000a81549073ffffffffffffffffffffffffffffffffffffffff02191690556002820160146101000a81549060ff02191690555050505050505050505050505050565b6000809054906101000a900473ffffffffffffffffffffffffffffffffffffffff1681565b3373ffffffffffffffffffffffffffffffffffffffff166000809054906101000a900473ffffffffffffffffffffffffffffffffffffffff1673ffffffffffffffffffffffffffffffffffffffff161415610a6b5760e0604051908101604052808773ffffffffffffffffffffffffffffffffffffffff1681526020018673ffffffffffffffffffffffffffffffffffffffff1681526020018573ffffffffffffffffffffffffffffffffffffffff168152602001848152602001838152602001828152602001600115158152506001600089815260200190815260200160002060008201518160000160006101000a81548173ffffffffffffffffffffffffffffffffffffffff021916908373ffffffffffffffffffffffffffffffffffffffff16021790555060208201518160010160006101000a81548173ffffffffffffffffffffffffffffffffffffffff021916908373ffffffffffffffffffffffffffffffffffffffff16021790555060408201518160020160006101000a81548173ffffffffffffffffffffffffffffffffffffffff021916908373ffffffffffffffffffffffffffffffffffffffff160217905550606082015181600301556080820151816004015560a0820151816005015560c08201518160060160006101000a81548160ff0219169083151502179055509050505b505050505050505600a165627a7a7230582001589389785247d85710c63f61121b2c018ba6ab896fc5b45e9ad19a24851aa80029",
  "source": "/// @title SubLevelC\npragma solidity ^0.4.17;\n\nimport './SubLevelC.sol';\n\ncontract DistributorC {\n  address public dopplerFoundation;\n  mapping (uint => Task) taskMapping;\n  mapping (uint => Payment) escrowMapping;\n\n  struct Task {\n    address provider;\n    address contributor;\n    address appOwner;\n\n    uint providerPercent;\n    uint contributorPercent;\n    uint appOwnerPercent;\n\n    bool isValue;\n  }\n\n  struct Payment {\n    uint amount;\n    uint taskID;\n    address userAddress;\n\n    bool isValue;\n  }\n\n  modifier isOwner() {\n      if ( dopplerFoundation == msg.sender) {\n          _;\n      }\n  }\n\n  function DistributorC() {\n    dopplerFoundation = msg.sender;\n  }\n\n  // Creates a payment object and holds it in escrow while waiting for the result.\n  function addPayment(uint _taskID, uint _tempPaymentID) payable {\n\n    uint amountSent = msg.value;\n    address userAddr = msg.sender;\n    uint taskID = _taskID;\n    uint tempPaymentID = _tempPaymentID;\n\n    escrowMapping[_tempPaymentID] = Payment(\n      {\n        amount: amountSent,\n        taskID: _taskID,\n        userAddress: userAddr,\n        isValue: true\n      });\n  }\n\n  // Returns payment info for a given user.\n  function getUserPayment(uint _tempPaymentID) public returns(uint, uint, address, bool) {\n    Payment userPayment = escrowMapping[_tempPaymentID];\n    return (userPayment.amount, userPayment.taskID, userPayment.userAddress, userPayment.isValue);\n  }\n\n  // Creates a payment object and holds it in escrow while waiting for the result.\n  function addTask(uint _taskID, address _providerAddress, address _contributorAddress, address _appOwnerAddress, uint _providerPercent, uint _contributorPercent, uint _appOwnerPercent)\n  isOwner() {\n    taskMapping[_taskID] = Task(\n      {\n         provider: _providerAddress,\n         contributor: _contributorAddress,\n         appOwner: _appOwnerAddress,\n         providerPercent: _providerPercent,\n         contributorPercent: _contributorPercent,\n         appOwnerPercent: _appOwnerPercent,\n         isValue: true\n      });\n  }\n\n  // Returns payment info for a given user.\n  function getTask(uint _taskID) returns(address, address, address, uint, uint, uint, bool) {\n    Task task = taskMapping[_taskID];\n    return (task.provider, task.contributor, task.appOwner, task.providerPercent, task.contributorPercent, task.appOwnerPercent, task.isValue);\n  }\n\n  function distributePayment(uint outcome, uint paymentID) public {\n\n    // Capture sender address\n    address userAddr = msg.sender;\n\n    // Get the payment struct\n    Payment storage paymentObj = escrowMapping[paymentID];\n\n    // Get the payment amount\n    uint amount = paymentObj.amount;\n\n    // Get the pipeline id\n    uint taskID = paymentObj.taskID;\n\n    // Get the pipeline struct\n    Task task = taskMapping[taskID];\n\n\n    uint amountProvider;\n    uint amountContributor;\n    uint amountAppOwner;\n    uint amountFoundation;\n    uint amountUser;\n\n    if(outcome == 1) {\n\n      // Calculate the amount each member of the pipeline receives.\n      // Split based on Pipeline percentages.\n      amountProvider = (task.providerPercent);\n      amount -= amountProvider;\n      amountContributor = (task.contributorPercent);\n      amount -= amountContributor;\n      amountAppOwner = (task.appOwnerPercent);\n      amount -= amountAppOwner;\n      amountFoundation = amount;\n      amountUser = 0;\n\n    } else if(outcome == 2) {\n\n      // Calculate the amount each member of the pipeline receives.\n      // Split based on Pipeline percentages.\n      amountProvider = (task.providerPercent);\n      amount -= amountProvider;\n      amountContributor = (task.contributorPercent);\n      amount -= amountContributor;\n      amountAppOwner = (task.appOwnerPercent);\n      amount -= amountAppOwner;\n      amountFoundation = amount;\n      amountUser = 0;\n\n    } else if(outcome == 3) {\n\n      // Calculate the amount each member of the pipeline receives.\n      // User gets refunded the Contributors and App Owners amount.\n      amountProvider = task.providerPercent;\n      amount -= amountProvider;\n      amountContributor = 0;\n      amountAppOwner = 0;\n      amountUser = task.appOwnerPercent + task.contributorPercent;\n      amount -= amountUser;\n      amountFoundation = amount;\n\n    } else if(outcome == 4) {\n\n      // Calculate the amount each member of the pipeline receives.\n      // Full refund to the user.\n      amountProvider = 0;\n      amountContributor = 0;\n      amountAppOwner = 0;\n      amountFoundation = 0;\n      amountUser = amount;\n\n    }\n\n    // Distribute the funds.\n    if(amountProvider != 0) task.provider.transfer(amountProvider);\n    if(amountContributor != 0) task.contributor.transfer(amountContributor);\n    if(amountAppOwner != 0) task.appOwner.transfer(amountAppOwner);\n    if(amountUser != 0) userAddr.send(amountUser);\n\n    // Delete the pending payment from escrowMapping.\n    delete escrowMapping[paymentID];\n  }\n\n  // Distributes payment based on outcome\n}\n",
  "sourcePath": "/Users/rob/Desktop/crypto-research/ethereum/pocs/poc1/contracts/DistributorC.sol",
  "compiler": {
    "name": "solc",
    "version": "0.4.18+commit.9cf6e910.Emscripten.clang"
  },
  "schemaVersion": "1.0.1",
  "updatedAt": "2018-01-09T05:32:34.485Z"
}