{
  "contractName": "SubLevelC",
  "abi": [
    {
      "inputs": [
        {
          "name": "owner",
          "type": "address[]"
        }
      ],
      "payable": false,
      "stateMutability": "nonpayable",
      "type": "function",
      "constant": false,
      "name": "returnOwners",
      "outputs": [
        {
          "name": "",
          "type": "address[]"
        }
      ]
    },
    {
      "payable": false,
      "stateMutability": "nonpayable",
      "type": "constructor",
      "inputs": [
        {
          "name": "owner",
          "type": "address[]"
        }
      ]
    }
  ],
  "bytecode": "0x606060405260016040518059106100135750595b90808252806020026020018201604052506000908051906020019061003992919061007e565b50341561004557600080fd5b6040516102de3803806102de83398101604052808051820191905050806000908051906020019061007792919061007e565b505061014b565b8280548282559060005260206000209081019282156100f7579160200282015b828111156100f65782518260006101000a81548173ffffffffffffffffffffffffffffffffffffffff021916908373ffffffffffffffffffffffffffffffffffffffff1602179055509160200191906001019061009e565b5b5090506101049190610108565b5090565b61014891905b8082111561014457600081816101000a81549073ffffffffffffffffffffffffffffffffffffffff02191690555060010161010e565b5090565b90565b6101848061015a6000396000f300606060405260043610610041576000357c0100000000000000000000000000000000000000000000000000000000900463ffffffff168063dde9394c14610046575b600080fd5b341561005157600080fd5b6100596100b0565b6040518080602001828103825283818151815260200191508051906020019060200280838360005b8381101561009c578082015181840152602081019050610081565b505050509050019250505060405180910390f35b6100b8610144565b600080548060200260200160405190810160405280929190818152602001828054801561013a57602002820191906000526020600020905b8160009054906101000a900473ffffffffffffffffffffffffffffffffffffffff1673ffffffffffffffffffffffffffffffffffffffff16815260200190600101908083116100f0575b5050505050905090565b6020604051908101604052806000815250905600a165627a7a723058203907f4fdc759d8d37cd07ecaf30d27c04681c02078e0259ffed8805456f813080029",
  "source": "/// @title SubLevelC\npragma solidity ^0.4.17;\n\ncontract SubLevelC {\n  address[] owners = new address[](1);\n\n  function SubLevelC(address[] owner) {\n    owners = owner;\n  }\n\n  function returnOwners() returns (address[]) {\n    return owners;\n  }\n}\n",
  "sourcePath": "/Users/rob/Desktop/crypto-research/ethereum/pocs/poc1/contracts/SubLevelC.sol",
  "compiler": {
    "name": "solc",
    "version": "0.4.18+commit.9cf6e910.Emscripten.clang"
  },
  "schemaVersion": "1.0.1",
  "updatedAt": "2018-01-03T23:09:40.423Z"
}