{
  "contractName": "SubLevelC",
  "abi": [
    {
      "constant": false,
      "inputs": [],
      "name": "returnPayoutAddresses",
      "outputs": [
        {
          "name": "",
          "type": "address[]"
        }
      ],
      "payable": false,
      "stateMutability": "nonpayable",
      "type": "function"
    },
    {
      "constant": false,
      "inputs": [
        {
          "name": "payoutAddress",
          "type": "address"
        }
      ],
      "name": "removePayoutAddress",
      "outputs": [],
      "payable": false,
      "stateMutability": "nonpayable",
      "type": "function"
    },
    {
      "constant": false,
      "inputs": [
        {
          "name": "payoutAddress",
          "type": "address"
        }
      ],
      "name": "addOwner",
      "outputs": [],
      "payable": false,
      "stateMutability": "nonpayable",
      "type": "function"
    },
    {
      "constant": true,
      "inputs": [],
      "name": "owner",
      "outputs": [
        {
          "name": "",
          "type": "address"
        }
      ],
      "payable": false,
      "stateMutability": "view",
      "type": "function"
    },
    {
      "constant": false,
      "inputs": [],
      "name": "distribute",
      "outputs": [],
      "payable": false,
      "stateMutability": "nonpayable",
      "type": "function"
    },
    {
      "constant": false,
      "inputs": [],
      "name": "test",
      "outputs": [
        {
          "name": "",
          "type": "uint256"
        }
      ],
      "payable": false,
      "stateMutability": "nonpayable",
      "type": "function"
    },
    {
      "inputs": [
        {
          "name": "initialPayoutAddresses",
          "type": "address[]"
        }
      ],
      "payable": false,
      "stateMutability": "nonpayable",
      "type": "constructor"
    },
    {
      "payable": true,
      "stateMutability": "payable",
      "type": "fallback"
    }
  ],
  "bytecode": "0x6060604052341561000f57600080fd5b60405161085d38038061085d8339810160405280805182019190505033600160006101000a81548173ffffffffffffffffffffffffffffffffffffffff021916908373ffffffffffffffffffffffffffffffffffffffff1602179055508060009080519060200190610082929190610089565b5050610156565b828054828255906000526020600020908101928215610102579160200282015b828111156101015782518260006101000a81548173ffffffffffffffffffffffffffffffffffffffff021916908373ffffffffffffffffffffffffffffffffffffffff160217905550916020019190600101906100a9565b5b50905061010f9190610113565b5090565b61015391905b8082111561014f57600081816101000a81549073ffffffffffffffffffffffffffffffffffffffff021916905550600101610119565b5090565b90565b6106f8806101656000396000f300606060405260043610610078576000357c0100000000000000000000000000000000000000000000000000000000900463ffffffff16806312f1c3111461007a5780631b61f60d146100e45780637065cb481461011d5780638da5cb5b14610156578063e4fc6b6d146101ab578063f8a8fd6d146101c0575b005b341561008557600080fd5b61008d6101e9565b6040518080602001828103825283818151815260200191508051906020019060200280838360005b838110156100d05780820151818401526020810190506100b5565b505050509050019250505060405180910390f35b34156100ef57600080fd5b61011b600480803573ffffffffffffffffffffffffffffffffffffffff169060200190919050506102d4565b005b341561012857600080fd5b610154600480803573ffffffffffffffffffffffffffffffffffffffff16906020019091905050610417565b005b341561016157600080fd5b6101696104d4565b604051808273ffffffffffffffffffffffffffffffffffffffff1673ffffffffffffffffffffffffffffffffffffffff16815260200191505060405180910390f35b34156101b657600080fd5b6101be6104fa565b005b34156101cb57600080fd5b6101d361061c565b6040518082815260200191505060405180910390f35b6101f161063b565b3373ffffffffffffffffffffffffffffffffffffffff16600160009054906101000a900473ffffffffffffffffffffffffffffffffffffffff1673ffffffffffffffffffffffffffffffffffffffff1614156102d15760008054806020026020016040519081016040528092919081815260200182805480156102c957602002820191906000526020600020905b8160009054906101000a900473ffffffffffffffffffffffffffffffffffffffff1673ffffffffffffffffffffffffffffffffffffffff168152602001906001019080831161027f575b505050505090505b90565b60003373ffffffffffffffffffffffffffffffffffffffff16600160009054906101000a900473ffffffffffffffffffffffffffffffffffffffff1673ffffffffffffffffffffffffffffffffffffffff16141561041357600090505b600080549050811015610411578173ffffffffffffffffffffffffffffffffffffffff1660008281548110151561036457fe5b906000526020600020900160009054906101000a900473ffffffffffffffffffffffffffffffffffffffff1673ffffffffffffffffffffffffffffffffffffffff161415610404576000818154811015156103bb57fe5b906000526020600020900160006101000a81549073ffffffffffffffffffffffffffffffffffffffff021916905560008054809190600190036103fe919061064f565b50610412565b8080600101915050610331565b5b5b5050565b3373ffffffffffffffffffffffffffffffffffffffff16600160009054906101000a900473ffffffffffffffffffffffffffffffffffffffff1673ffffffffffffffffffffffffffffffffffffffff1614156104d15760008054806001018281610481919061067b565b9160005260206000209001600083909190916101000a81548173ffffffffffffffffffffffffffffffffffffffff021916908373ffffffffffffffffffffffffffffffffffffffff160217905550505b50565b600160009054906101000a900473ffffffffffffffffffffffffffffffffffffffff1681565b6000803373ffffffffffffffffffffffffffffffffffffffff16600160009054906101000a900473ffffffffffffffffffffffffffffffffffffffff1673ffffffffffffffffffffffffffffffffffffffff161415610618576000805490503073ffffffffffffffffffffffffffffffffffffffff163181151561057a57fe5b049150600090505b6000805490508110156106175760008181548110151561059e57fe5b906000526020600020900160009054906101000a900473ffffffffffffffffffffffffffffffffffffffff1673ffffffffffffffffffffffffffffffffffffffff166108fc60339081150290604051600060405180830381858888f19350505050151561060a57600080fd5b8080600101915050610582565b5b5050565b60003073ffffffffffffffffffffffffffffffffffffffff1631905090565b602060405190810160405280600081525090565b8154818355818115116106765781836000526020600020918201910161067591906106a7565b5b505050565b8154818355818115116106a2578183600052602060002091820191016106a191906106a7565b5b505050565b6106c991905b808211156106c55760008160009055506001016106ad565b5090565b905600a165627a7a72305820d9514abf5a9a4a4c1182bcc648c12ebcfe87e11fc30eb5c6db35c7080c081efb0029",
  "source": "/// @title SubLevelC\npragma solidity ^0.4.17;\n\ncontract SubLevelC {\n  address[] private payoutAddresses;\n  address public owner;\n\n  modifier isOwner() {\n      if ( owner == msg.sender) {\n          _;\n      }\n  }\n\n  function SubLevelC(address[] initialPayoutAddresses) {\n    owner = msg.sender;\n    payoutAddresses = initialPayoutAddresses;\n  }\n\n  function addOwner(address payoutAddress)\n  isOwner()\n  {\n    payoutAddresses.push(payoutAddress);\n  }\n\n  function removePayoutAddress(address payoutAddress)\n  isOwner()\n  {\n    for (uint i = 0; i < payoutAddresses.length; i ++) {\n      if (payoutAddresses[i] == payoutAddress) {\n        delete payoutAddresses[i];\n        payoutAddresses.length --;\n        return;\n      }\n    }\n  }\n\n  function returnPayoutAddresses()\n  isOwner()\n  returns (address[]) {\n    return payoutAddresses;\n  }\n\n  function distribute()\n  isOwner() {\n    uint sendAmount = this.balance/payoutAddresses.length;\n    for (uint i = 0; i < payoutAddresses.length; i ++) {\n      payoutAddresses[i].transfer(51);\n    }\n  }\n\n  function test() returns (uint) {\n    return this.balance;\n  }\n\n  function () payable {}\n}\n",
  "sourcePath": "/Users/rob/Desktop/crypto-research/ethereum/pocs/poc1/contracts/SubLevelC.sol",
  "compiler": {
    "name": "solc",
    "version": "0.4.18+commit.9cf6e910.Emscripten.clang"
  },
  "schemaVersion": "1.0.1",
  "updatedAt": "2018-01-04T21:10:39.525Z"
}