{
  "contractName": "SubLevelC",
  "abi": [
    {
      "constant": false,
      "inputs": [],
      "name": "returnPayoutAddresses",
      "outputs": [
        {
          "name": "",
          "type": "address[]"
        }
      ],
      "payable": false,
      "stateMutability": "nonpayable",
      "type": "function"
    },
    {
      "constant": false,
      "inputs": [
        {
          "name": "payoutAddress",
          "type": "address"
        }
      ],
      "name": "removePayoutAddress",
      "outputs": [],
      "payable": false,
      "stateMutability": "nonpayable",
      "type": "function"
    },
    {
      "constant": false,
      "inputs": [
        {
          "name": "payoutAddress",
          "type": "address"
        }
      ],
      "name": "addOwner",
      "outputs": [],
      "payable": false,
      "stateMutability": "nonpayable",
      "type": "function"
    },
    {
      "constant": true,
      "inputs": [],
      "name": "owner",
      "outputs": [
        {
          "name": "",
          "type": "address"
        }
      ],
      "payable": false,
      "stateMutability": "view",
      "type": "function"
    },
    {
      "constant": false,
      "inputs": [],
      "name": "distribute",
      "outputs": [],
      "payable": false,
      "stateMutability": "nonpayable",
      "type": "function"
    },
    {
      "inputs": [
        {
          "name": "initialPayoutAddresses",
          "type": "address[]"
        }
      ],
      "payable": false,
      "stateMutability": "nonpayable",
      "type": "constructor"
    },
    {
      "payable": true,
      "stateMutability": "payable",
      "type": "fallback"
    }
  ],
  "bytecode": "0x6060604052341561000f57600080fd5b6040516108093803806108098339810160405280805182019190505033600160006101000a81548173ffffffffffffffffffffffffffffffffffffffff021916908373ffffffffffffffffffffffffffffffffffffffff1602179055508060009080519060200190610082929190610089565b5050610156565b828054828255906000526020600020908101928215610102579160200282015b828111156101015782518260006101000a81548173ffffffffffffffffffffffffffffffffffffffff021916908373ffffffffffffffffffffffffffffffffffffffff160217905550916020019190600101906100a9565b5b50905061010f9190610113565b5090565b61015391905b8082111561014f57600081816101000a81549073ffffffffffffffffffffffffffffffffffffffff021916905550600101610119565b5090565b90565b6106a4806101656000396000f30060606040526004361061006d576000357c0100000000000000000000000000000000000000000000000000000000900463ffffffff16806312f1c3111461006f5780631b61f60d146100d95780637065cb48146101125780638da5cb5b1461014b578063e4fc6b6d146101a0575b005b341561007a57600080fd5b6100826101b5565b6040518080602001828103825283818151815260200191508051906020019060200280838360005b838110156100c55780820151818401526020810190506100aa565b505050509050019250505060405180910390f35b34156100e457600080fd5b610110600480803573ffffffffffffffffffffffffffffffffffffffff169060200190919050506102a0565b005b341561011d57600080fd5b610149600480803573ffffffffffffffffffffffffffffffffffffffff169060200190919050506103e3565b005b341561015657600080fd5b61015e6104a0565b604051808273ffffffffffffffffffffffffffffffffffffffff1673ffffffffffffffffffffffffffffffffffffffff16815260200191505060405180910390f35b34156101ab57600080fd5b6101b36104c6565b005b6101bd6105e7565b3373ffffffffffffffffffffffffffffffffffffffff16600160009054906101000a900473ffffffffffffffffffffffffffffffffffffffff1673ffffffffffffffffffffffffffffffffffffffff16141561029d57600080548060200260200160405190810160405280929190818152602001828054801561029557602002820191906000526020600020905b8160009054906101000a900473ffffffffffffffffffffffffffffffffffffffff1673ffffffffffffffffffffffffffffffffffffffff168152602001906001019080831161024b575b505050505090505b90565b60003373ffffffffffffffffffffffffffffffffffffffff16600160009054906101000a900473ffffffffffffffffffffffffffffffffffffffff1673ffffffffffffffffffffffffffffffffffffffff1614156103df57600090505b6000805490508110156103dd578173ffffffffffffffffffffffffffffffffffffffff1660008281548110151561033057fe5b906000526020600020900160009054906101000a900473ffffffffffffffffffffffffffffffffffffffff1673ffffffffffffffffffffffffffffffffffffffff1614156103d05760008181548110151561038757fe5b906000526020600020900160006101000a81549073ffffffffffffffffffffffffffffffffffffffff021916905560008054809190600190036103ca91906105fb565b506103de565b80806001019150506102fd565b5b5b5050565b3373ffffffffffffffffffffffffffffffffffffffff16600160009054906101000a900473ffffffffffffffffffffffffffffffffffffffff1673ffffffffffffffffffffffffffffffffffffffff16141561049d576000805480600101828161044d9190610627565b9160005260206000209001600083909190916101000a81548173ffffffffffffffffffffffffffffffffffffffff021916908373ffffffffffffffffffffffffffffffffffffffff160217905550505b50565b600160009054906101000a900473ffffffffffffffffffffffffffffffffffffffff1681565b6000803373ffffffffffffffffffffffffffffffffffffffff16600160009054906101000a900473ffffffffffffffffffffffffffffffffffffffff1673ffffffffffffffffffffffffffffffffffffffff1614156105e3576000805490503073ffffffffffffffffffffffffffffffffffffffff163181151561054657fe5b049150600090505b6000805490508110156105e25760008181548110151561056a57fe5b906000526020600020900160009054906101000a900473ffffffffffffffffffffffffffffffffffffffff1673ffffffffffffffffffffffffffffffffffffffff166108fc839081150290604051600060405180830381858888f1935050505015156105d557600080fd5b808060010191505061054e565b5b5050565b602060405190810160405280600081525090565b815481835581811511610622578183600052602060002091820191016106219190610653565b5b505050565b81548183558181151161064e5781836000526020600020918201910161064d9190610653565b5b505050565b61067591905b80821115610671576000816000905550600101610659565b5090565b905600a165627a7a7230582057167c004b1f7bef537c873fbd76516493863a8cd669c5c844f208ed9b53eef30029",
  "source": "/// @title SubLevelC\npragma solidity ^0.4.17;\n\ncontract SubLevelC {\n  address[] private payoutAddresses;\n  address public owner;\n\n  modifier isOwner() {\n      if ( owner == msg.sender) {\n          _;\n      }\n  }\n\n  function SubLevelC(address[] initialPayoutAddresses) {\n    owner = msg.sender;\n    payoutAddresses = initialPayoutAddresses;\n  }\n\n  function addOwner(address payoutAddress)\n  isOwner()\n  {\n    payoutAddresses.push(payoutAddress);\n  }\n\n  function removePayoutAddress(address payoutAddress)\n  isOwner()\n  {\n    for (uint i = 0; i < payoutAddresses.length; i ++) {\n      if (payoutAddresses[i] == payoutAddress) {\n        delete payoutAddresses[i];\n        payoutAddresses.length --;\n        return;\n      }\n    }\n  }\n\n  function returnPayoutAddresses()\n  isOwner()\n  returns (address[]) {\n    return payoutAddresses;\n  }\n\n  function distribute()\n  isOwner() {\n    uint sendAmount = this.balance/payoutAddresses.length;\n    for (uint i = 0; i < payoutAddresses.length; i ++) {\n      payoutAddresses[i].transfer(sendAmount);\n    }\n  }\n\n  function () payable {}\n}\n",
  "sourcePath": "/Users/rob/Desktop/crypto-research/ethereum/pocs/poc1/contracts/SubLevelC.sol",
  "compiler": {
    "name": "solc",
    "version": "0.4.18+commit.9cf6e910.Emscripten.clang"
  },
  "schemaVersion": "1.0.1",
  "updatedAt": "2018-01-08T17:01:16.507Z"
}