{
  "contractName": "HelloWorld",
  "abi": [
    {
      "constant": false,
      "inputs": [
        {
          "name": "newGreeting",
          "type": "uint256"
        }
      ],
      "name": "setGreeting",
      "outputs": [],
      "payable": false,
      "stateMutability": "nonpayable",
      "type": "function"
    },
    {
      "constant": true,
      "inputs": [],
      "name": "getGreeting",
      "outputs": [
        {
          "name": "",
          "type": "uint256"
        }
      ],
      "payable": false,
      "stateMutability": "view",
      "type": "function"
    },
    {
      "inputs": [
        {
          "name": "initialGreeting",
          "type": "string"
        }
      ],
      "payable": false,
      "stateMutability": "nonpayable",
      "type": "constructor",
      "constant": false,
      "name": "getGreeting",
      "outputs": [
        {
          "name": "",
          "type": "uint256"
        }
      ]
    },
    {
      "inputs": [
        {
          "name": "initialGreeting",
          "type": "uint256"
        }
      ],
      "payable": false,
      "stateMutability": "nonpayable",
      "type": "constructor"
    }
  ],
  "bytecode": "0x6060604052341561000f57600080fd5b60d38061001d6000396000f3006060604052600436106049576000357c0100000000000000000000000000000000000000000000000000000000900463ffffffff168063b201097814604e578063fe50cc7214606e575b600080fd5b3415605857600080fd5b606c60048080359060200190919050506094565b005b3415607857600080fd5b607e609e565b6040518082815260200191505060405180910390f35b8060008190555050565b600080549050905600a165627a7a7230582014e3ff554c5090bad8123b3640bc1a3392fe5abc93d9d8349fbe053d0d1dfb1e0029",
  "source": "/*\n  While this is obviously overkill for production code, I am going to use a\n  generous amount of comments with this first contract to establish the\n  reasoning behind certain choices and also highlight the basic structure\n  of a smart contract for anyone who may, in the future look at this crypto\n  research folder.\n*/\n\n// [PART 1] Specify which version of Solidity we want to use.\npragma solidity ^0.4.17;\n\n// [PART 2] Import other Sol files and smart contracts.\n\n// [PART 3] Title Comment\n/// @title Voting with delegation.\n\n// [PART 4] The contract class constructor.\ncontract HelloWorld {\n\n  /*\n    [PART 5] State Variables.\n\n    There are three basic parts to a state variable.\n\n    1) Type\n    2) Public/Private/External/Inherited\n    3) Variable Name\n  */\n  uint private greeting;\n\n  // [PART 6] Events.\n  // Used to log values in the interface, useful for debugging.\n\n  // [PART 7] Function Modifiers.\n  // Way to put restrictions on certain functions i.e. only owner can do x.\n\n  // [PART 8] Structs/Enums/Mappings.\n\n  // [PART 9] The smart contract Constructor.\n  function HelloWorld() public {\n\n  }\n\n  // [PART 10] Other functions.\n  function setGreeting(uint newGreeting) public {\n    greeting = newGreeting;\n  }\n\n  function getGreeting() public constant returns (uint) {\n    return greeting;\n  }\n\n  // [PART 11] The default function.\n\n}\n",
  "sourcePath": "/Users/rob/Desktop/crypto-research/ethereum/truffle/contracts/HelloWorld.sol",
  "compiler": {
    "name": "solc",
    "version": "0.4.18+commit.9cf6e910.Emscripten.clang"
  },
  "schemaVersion": "1.0.1",
  "updatedAt": "2017-12-11T05:46:38.880Z"
}